:1000000057C08BC070C06FC06EC06DC06CC06BC07D
:100010006AC069C068C067C066C065C064C063C0AC
:1000200062C061C060C005010902A1010901A1000F
:1000300005091901290315002501950375018102A0
:1000400095017505810305010930093109381581CC
:10005000257F750895038106C0C0090222000101B1
:1000600000800A09040000010300000009210101C9
:100070000001223400070581030800641201100109
:1000800000000008C016E8030001010200010C0393
:100090004D006F0075007300650012036F00620071
:1000A0006400650076002E006100740004030904FA
:1000B00011241FBECFE5D4E0DEBFCDBF10E0A0E627
:1000C000B0E0EEE8FDE002C005900D92A037B10768
:1000D000D9F720E0A0E7B0E001C01D92A03BB20735
:1000E000E1F791D252C68CCFA82FB92F80E090E0D3
:1000F00041E050EA609530E009C02D918227979544
:10010000879510F084279527305EC8F36F5FA8F3BA
:100110000895EADF8D939D930895CF93CFB7CF9342
:10012000C395839BE9F7839B09C0839B07C0839B8F
:1001300005C0839B03C0839B01C0A3C0DF93C09114
:100140009300DD27C656DF4F839B02C0DF91EBCFC4
:100150002F930F931F9300B32FEF03FB20F94F93BF
:100160003F9310B34FEF012703FB21F93BE031C070
:100170004E7F012F10B3216028C0102F4D7F2260C9
:10018000000000B329C04B7F2460012F000010B392
:100190002BC010B3477F28602AC04F7E00B3206178
:1001A0002CC04F7D10B320622FC04F7B00B3206462
:1001B00032C0422700B349934FEF0000102713FBD2
:1001C00020F910B31C70C9F1297F91F2012703FBBC
:1001D00021F900B3237F89F2315058F1102713FB26
:1001E00022F910B3277E79F2012703FB23F92F7C34
:1001F00081F200B3102713FB24F92F7971F200C0AC
:1002000010B3012703FB25F92F7359F200C000B387
:10021000102713FB26F9223040F200C010B301274B
:1002200003FB27F9243028F64F77206810B300002D
:10023000F9CF10E41ABF002719C03B503195C31BFA
:10024000D04010E41ABF0881033CF9F00B34E9F008
:10025000209191001981110F1213EDCF4A81441F93
:10026000093641F10D3211F0013E29F70093980053
:100270003F914F911F910F912F91DF91CAB7C6FD0A
:100280004FCFCF91CFBFCF911895209198002223C7
:1002900079F310919600112369F534306AF13093A7
:1002A000960020939200109193003BE0311B309315
:1002B000930022C0009196000130E4F40AE54F70EB
:1002C00049F430916E0034FD19C000936E00CAE706
:1002D000D0E018C03091850034FD10C00093850037
:1002E000C6E8D0E00FC02795A8F45150A9F4220F1A
:1002F0000000F9CF4AE503C042ED01C0432FC4E13D
:10030000D0E032E011B31C60939A11BB02B320E439
:100310001CE05F93012756E002BB279520F4515063
:1003200021F4220FF9CF012756E000003B5A02BB0F
:10033000D0F2279528F4515029F4220F0000F9CF6C
:10034000012756E0279502BB20F4515021F4220FDB
:10035000F9CF012756E02991332302BB21F6037F11
:1003600010919700110FC651D04002BB11F01093AD
:10037000910010E41ABF086011B3137F402F437F30
:100380005F9100C000C002BB11BB42BB71CF87B1FF
:10039000806687B987B1807F87B986B1866886B95C
:1003A000369A0895FC01369918C080917300811126
:1003B00008C085B180937200389A81E08093730001
:1003C0000BC085B18093710087B1807F87B910928F
:1003D000730081E080937000369A809170008823CA
:1003E00051F01092700080917200808380917100B2
:1003F000FB01808381E00895FC019081907690322A
:10040000E1F48181813041F485E790E0909395009B
:100410008093940084E00895823041F484E790E072
:10042000909395008093940081E008958A3039F488
:1004300083818093740080E0089580E0089580E0D7
:1004400008958F929F92AF92BF92EF92FF920F9377
:100450001F93CF93DF93D82FC62F7A018901809104
:100460006C00882309F444C06D2F70E080E090E0B8
:1004700074D34B015C0160936800709369008093B2
:100480006A0090936B0020E030E040E751E4D0D266
:1004900038D36093670020E030E040E751E4C501C5
:1004A000B401C5D22ED3609366006C2F70E080E05B
:1004B00090E053D34B015C01609362007093630042
:1004C000809364009093650020E030E040E751E4C1
:1004D000AFD217D36093610020E030E040E751E4F1
:1004E000C501B401A4D20DD36093600010926C00DA
:1004F000809166008D1750F580916700D81730F510
:1005000020E030E040E65FE36091680070916900B0
:1005100080916A0090916B00AED34B015C016D2F0E
:1005200070E080E090E019D320E030E040E05EE34E
:10053000A2D39B01AC01C501B4017AD260936800DB
:100540007093690080936A0090936B0080916000C3
:100550008C1750F580916100C81730F520E030E02D
:1005600040E65FE3609162007091630080916400F7
:100570009091650080D34B015C016C2F70E080E0AE
:1005800090E0EBD220E030E040E05EE374D39B01EA
:10059000AC01C501B4014CD260936200709363005A
:1005A00080936400909365006D2F70E080E090E090
:1005B000D4D2209168003091690040916A00509136
:1005C0006B0035D299D2F70160836C2F70E080E028
:1005D00090E0C3D29B01AC01609162007091630016
:1005E000809164009091650022D286D2F8016083E8
:1005F000DF91CF911F910F91FF90EF90BF90AF903F
:100600009F908F900895CF93DF9300D000D0CDB707
:10061000DEB784B3807C84BB889885B38C6385BB4C
:10062000909A80B38170A82EB2DE9EE088E10FB66A
:10063000F894A89581BD0FBE91BDECD18B9A8FEF38
:10064000A895E7EBFBE03197F1F700C0000081507F
:10065000B9F78B9878946894BB24B1F805E810E05A
:100660000F2EF6EFCF2EDD24DA94F02D0F2EFAE0C8
:10067000EF2EF12CF02D0F2EFAE06F2EF02D7724B7
:1006800073946894882481F80F2EF5E09F2EF02D46
:10069000A8959FD0F801808184FF04C064E085E7BD
:1006A00090E075D033B3387083B393B3907143B394
:1006B00020B3217082FD06C0E5E7F0E08081816013
:1006C000808305C0E5E7F0E080818E7F8083311173
:1006D00006C0E5E7F0E080818260808305C0E5E741
:1006E000F0E080818D7F8083911107C06B2D70E0D9
:1006F000C70124D3609378000BC045FD07C06B2D64
:1007000070E0C6011BD36093780002C0109278009D
:100710002A15C1F0211112C0F5E0BF1649F08AE098
:10072000B81649F0E2E0BE120BC0A22EB92C0AC0E6
:10073000A22EB62C07C0A22EB72C04C0A22E02C037
:10074000A22EB82CBE016E5F7F4FCE0101962ADE2D
:10075000882309F49DCF9E012C5F3F4FAE014D5F72
:100760005F4F6A8189816DDE2B2D30E0E5E7F0E097
:100770008B81082E000C990BB901E0D261838C812A
:10078000082E000C990BB901D9D2628381CFCF9387
:10079000C62F2091850024FF07C0E5E8F0E03181F5
:1007A00028E82327218303C02AE520938500E82F2A
:1007B000F92FA7E8B0E08C2F91919D938150E1F73C
:1007C0006C2F87E890E0A5DCCC5FC0938500CF91CB
:1007D0000895CF93DF938091960083500AF4B4C0BC
:1007E00020919300909192009D3209F0ABC0883027
:1007F00009F0A8C0CCE0D0E0C21BD109C656DF4F3B
:1008000083EC80937A008AE580936E0010927900E1
:100810008881807619F0CE01EFDD8BC09A8110922D
:1008200083008981811106C01092840023E830E0A2
:1008300082E07BC0853031F49093970023E830E06C
:1008400080E073C0863009F050C08B81813041F464
:100850008CE790E0909395008093940082E141C0F2
:10086000823041F48AE590E0909395008093940063
:1008700082E237C08330F1F4911108C08CEA90E035
:10088000909395008093940084E02BC0913041F4C4
:100890008AE990E0909395008093940082E121C0D2
:1008A0009230E1F48EE890E090939500809394006C
:1008B0008CE017C0813241F48CE690E09093950073
:1008C0008093940089E00DC0823251F486E290E07A
:1008D000909395008093940084E303C080E001C06E
:1008E00080E090E49093790024C0883099F08930BA
:1008F00031F49093990023E830E080E016C08A300C
:1009000069F08B3079F48BE48093860023E830E043
:1009100080E00BC029E930E081E007C023E830E047
:1009200081E003C023E830E080E03093950020931D
:1009300094009F81911104C09E81981708F4892F1B
:1009400080936D001092960080916E0084FF4BC0E2
:1009500080916D008F3F09F446C0C82F893008F0A0
:10096000C8E08C1B80936D00EAE7F0E0908188E896
:1009700089278083CC2309F444C0209194003091CE
:1009800095008091790086FF10C0ABE7B0E0F901D7
:100990008C2F94919D9331968150D9F72F5F3F4FC3
:1009A0008FEF8C0F280F311D0EC0ABE7B0E0F901BF
:1009B0008C2F91919D938150E1F72F5F3F4F8FEFE7
:1009C0008C0F280F311D30939500209394006C2FCD
:1009D0008BE790E09EDBCC5FCC3018F48FEF8093F8
:1009E0006D00C0936E0080B38C7089F493E180B386
:1009F0008C7069F49150D9F7109297001092910081
:100A000006C06C2F8BE790E084DBCC5FE7CFDF91F3
:100A1000CF91089585B7826085BF8BB780648BBF07
:100A2000E5E8F0E08BE481838AE5808308955058FF
:100A3000BB27AA270ED0E5C0D6D030F0DBD020F0FF
:100A400031F49F3F11F41EF4CBC00EF4E095E7FBA8
:100A5000C1C0E92FE7D080F3BA1762077307840794
:100A6000950718F071F49EF5FFC00EF4E0950B2E7B
:100A7000BA2FA02D0B01B90190010C01CA01A001F0
:100A80001124FF27591B99F0593F50F4503E68F14B
:100A90001A16F040A22F232F342F4427585FF3CF8C
:100AA000469537952795A795F0405395C9F77EF45D
:100AB0001F16BA0B620B730B840BBAF09150A1F0A6
:100AC000FF0FBB1F661F771F881FC2F70EC0BA0F2C
:100AD000621F731F841F48F4879577956795B795B4
:100AE000F7959E3F08F0B3CF9395880F08F09927AC
:100AF000EE0F97958795089504D06894B111B5C00D
:100B0000089598D088F09F5790F0B92F9927B75142
:100B1000A0F0D1F0660F771F881F991F1AF0BA95C1
:100B2000C9F712C0B13081F09FD0B1E008959CC0E8
:100B3000672F782F8827B85F39F0B93FCCF38695B7
:100B400077956795B395D9F73EF490958095709514
:100B500061957F4F8F4F9F4F0895E89409C097FB91
:100B60003EF490958095709561957F4F8F4F9F4F84
:100B70009923A9F0F92F96E9BB279395F6958795C8
:100B800077956795B795F111F8CFFAF4BB0F11F48B
:100B900060FF1BC06F5F7F4F8F4F9F4F16C0882332
:100BA00011F096E911C0772321F09EE8872F762F68
:100BB00005C0662371F096E8862F70E060E02AF0A9
:100BC0009A95660F771F881FDAF7880F9695879595
:100BD00097F9089597F99F6780E870E060E00895BD
:100BE0009FEF80EC089500240A9416161706180645
:100BF0000906089500240A94121613061406050621
:100C00000895092E0394000C11F4882352F0BB0FB1
:100C100040F4BF2B11F460FF04C06F5F7F4F8F4F14
:100C20009F4F089557FD9058440F551F59F05F3F4F
:100C300071F04795880F97FB991F61F09F3F79F0FE
:100C400087950895121613061406551FF2CF469580
:100C5000F1DF08C0161617061806991FF1CF869502
:100C60007105610508940895E894BB2766277727E6
:100C7000CB0197F908950BD0C4CFB5DF28F0BADFC8
:100C800018F0952309F0A6CFABCF1124EECFCADF21
:100C9000A0F3959FD1F3950F50E0551F629FF0018F
:100CA000729FBB27F00DB11D639FAA27F00DB11DE8
:100CB000AA1F649F6627B00DA11D661F829F222771
:100CC000B00DA11D621F739FB00DA11D621F839FF8
:100CD000A00D611D221F749F3327A00D611D231FCE
:100CE000849F600D211D822F762F6A2F11249F571C
:100CF00050408AF0E1F088234AF0EE0FFF1FBB1F3F
:100D0000661F771F881F91505040A9F79E3F5105DD
:100D100070F060CFAACF5F3FECF3983EDCF386958E
:100D200077956795B795F795E7959F5FC1F7FE2B88
:100D3000880F911D9695879597F9089597FB072E33
:100D400016F4009406D077FD08D00BD007FC05D030
:100D50003EF4909581959F4F0895709561957F4FD2
:100D60000895AA1BBB1B51E107C0AA1FBB1FA617F2
:100D7000B70710F0A61BB70B881F991F5A95A9F744
:0E0D800080959095BC01CD010895F894FFCFA9
:100D8E0078820000004378820000004301FF5A0081
:00000001FF
